:020000040800F2
:100000000007002089010008DF180008B31200086B
:10001000131700083B020008F91E0008000000004A
:10002000000000000000000000000000291C000883
:10003000290F000800000000011A0008951C0008A4
:100040009F0100089F0100089F0100089F01000810
:100050009F0100089F0100082B0F0008430F0008B4
:100060009F0100089F0100089F0100089F010008F0
:100070009F0100089F0100089F0100089F010008E0
:100080009F0100089F0100089F0100089F010008D0
:100090009F0100089F0100089F0100085B0F0008F6
:1000A0009F0100089F0100089F0100089F010008B0
:1000B0009F0100089F010008000000009F01000848
:1000C0009F01000800000000000000009F010008E0
:1000D000000000009F0100089F01000800000000D0
:1000E0009F0100089F0100089F01000800F002F82E
:1000F00000F03AF80AA090E8000C82448344AAF188
:100100000107DA4501D100F02FF8AFF2090EBAE885
:100110000F0013F0010F18BFFB1A43F0010318473B
:10012000E027000000280000103A24BF78C878C1FA
:10013000FAD8520724BF30C830C144BF04680C60ED
:10014000704700000023002400250026103A28BF35
:1001500078C1FBD8520728BF30C148BF0B60704739
:100160001FB51FBD10B510BD00F02DF81146FFF7EB
:10017000F7FF01F0F1FE00F04BF803B4FFF7F2FFD8
:1001800003BC00F053F8000008480047FEE7FEE714
:10019000FEE7FEE7FEE7FEE7FEE7FEE7FEE7FEE737
:1001A00003480449044A054B70470000ED0000086D
:1001B00000010020000700200003002000030020B1
:1001C000704770477047754600F02CF8AE46050042
:1001D0006946534620F00700854618B020B5FFF762
:1001E000DFFFBDE820404FF000064FF000074FF062
:1001F00000084FF0000B21F00701AC46ACE8C00945
:10020000ACE8C009ACE8C009ACE8C0098D4670474D
:1002100010B50446AFF300802046BDE81040FFF75C
:10022000ACBF000000487047A00000200149182022
:10023000ABBEFEE726000200704700BFFEE70000ED
:1002400010B54148007888B90020404908704049FD
:10025000087001203C49087000203E4981F82400C4
:1002600081F825003C49086000F0D0FC3748007850
:1002700020B1012823D002283CD12BE000F036F930
:10028000344890F82400052818D112E0334800F0D3
:100290006FFD32493048006802F0BCFA20F000449B
:1002A0004FF07E51204602F083F902D200F0C4FCE8
:1002B00000E0EBE700BF0120254908701AE000F0DC
:1002C000E9F9244890F82400092802D101202049A6
:1002D00008700FE000F032FB1E4890F82400092857
:1002E00007D11C4890F82500042802DB012018499A
:1002F000087000BF00BF1648007818B300F09CFCDF
:100300004FF47A7001F0FCFD10480078401C0F4952
:10031000087008460078022802DD00F08DFC10BD50
:1003200000200B4908700B4981F8240081F8250052
:100330000949086000F06AFC04490978491CC8B200
:1003400001F034F900BFEAE76600002065000020F4
:100350006700002078000020700000200000B4C377
:1003600000B54FF07E5300220249034801F03EFBE6
:1003700000BD0000000078417C0000202DE9F04124
:10038000254D01F0ADF804460A2C04D1012001F0FE
:100390000DF9BDE8F081002C14DD032C12DA85F094
:1003A0000047384602F09CF846B23146002001F082
:1003B00011FA284602F094F846B23146012001F0C5
:1003C00009FA26E0062C14DA032C12DD284602F086
:1003D00087F846B23146002001F0FCF985F000476D
:1003E000384602F07DF846B23146012001F0F2F9BC
:1003F0000FE0284602F074F846B23146002001F0C2
:10040000E9F9284602F06CF846B23146012001F0C5
:10041000E1F900BFBDE7000000008C422DE9F04784
:100420000024A146A24628480078A0B9002000F088
:1004300007FE264908602648006826490860002013
:10044000254981F8240001201F4908700020234914
:10045000086000F0DBFB002000F0F2FD04461B49C1
:100460000968601A01F0F7FD07461D4A1D4B01F0AF
:1004700009FE054601F0BEFD82461548D0F8009001
:10048000154890F8240010B101281AD116E0642014
:1004900000F0DAFB0F480068A9EB000040F63401D9
:1004A00088420ADB1049504602F082F905D800F074
:1004B000C3FB0120084981F8240002E000F0BCFBE6
:1004C00000BF00BFBDE8F0873800002030000020EA
:1004D0000000002034000020780000207000002080
:1004E000FBB0DEA81556F03F000096422DE9F04122
:1004F0000025002400265D480078A0B9002000F007
:100500009FFD5B4908605B4800685B49086000200C
:100510005A4981F8240001205449087000205849A4
:10052000086000F073FB5348046853490968601A77
:1005300002F012F80646514890F82400062817D217
:10054000DFE800F003173858718D462000F07CFB7F
:1005500000F0C6FF60B100F06FFB012001F026F84B
:1005600043480560444804600120444981F8240060
:1005700078E0FFF703FF43494148006802F04AF979
:1005800020F000474049384602F012F811D23F49A6
:10059000304602F00DF90CD800F04EFB022001F0BD
:1005A00005F833480560344804600220334981F877
:1005B000240057E0334800F0DBFB32493048006844
:1005C00002F028F920F000474FF07E51384601F044
:1005D000EFFF0ED200F030FB00F018FB032027499C
:1005E00081F82400012000F0E1FF21480560224845
:1005F000046037E0642000F027FB00F071FF88B151
:100600002249304602F0D4F80CD800F015FB032044
:1006100000F0CCFF16480560174804600420174915
:1006200081F824001EE0FFF7A9FE1949144800686C
:1006300002F0F0F820F000471349384601F0B8FF07
:100640000CD200F0F9FA042000F0B0FF0848056071
:10065000094804600520094981F8240002E000F0FF
:10066000EBFA00BF00BFBDE8F081000044000020AD
:100670003C00002000000020400000207800002006
:1006800070000020000034C3000020410080BB4403
:100690000000B4C32DE9F04100250024002698484D
:1006A0000078A0B9002000F0CBFC9649086096487D
:1006B0000068964908600020954981F824000120CF
:1006C0008F49087000209349086000F09FFA8E4817
:1006D00004688E490968601A01F03EFF06468C489E
:1006E00090F824000A2822D2DFE800F005223C5BC3
:1006F0007791B1CBEAFE884800F03AFB87498548FC
:10070000006801F0BDFD20F000474FF07E513846F3
:1007100001F04EFF0BD200F08FFA00F077FA794823
:1007200005607A4804600120794981F82400E4E0FA
:10073000462000F089FA00F0D3FE012811D1784953
:10074000304602F035F80CD800F076FA012000F0BF
:100750002DFF6C4805606D48046002206C4981F8EB
:100760002400CAE0002000F003FB00216948006873
:1007700002F050F820F000474FF07E51384601F06B
:1007800017FF0DD200F058FA4FF47A7001F0B8FB61
:100790005C4805605D48046003205D4981F82400E1
:1007A000ABE0FFF7EBFD5F495A48006802F032F812
:1007B00020F000475C49384601F0FAFE0CD200F008
:1007C0003BFA022000F0F2FE4E4805604F480460FC
:1007D00005204F4981F824008FE0544800F0C8FA02
:1007E00050494C48006802F015F820F00047504985
:1007F000384601F0DDFE09D200F01EFA41480560DE
:10080000424804600520424981F8240075E04948C7
:1008100000F0AEFA47493F48006801F0FBFF20F0C6
:1008200000474FF07E51384601F0C2FE0ED200F074
:1008300003FA032000F0BAFE00F0E8F93148056041
:10084000324804600620324981F8240055E04620F1
:1008500000F0FAF900F044FE052811D13049304685
:1008600001F0A6FF0CD800F0E7F9042000F09EFE8E
:1008700024480560254804600720254981F82400A4
:100880003BE0284800F074FA26492248006801F04D
:10089000C1FF20F000474FF07E51384601F088FE3E
:1008A0000DD200F0C9F94FF47A7001F029FB154818
:1008B0000560164804600820154981F824001CE0F2
:1008C000FFF75CFD00211348006801F0A3FF20F052
:1008D00000471949384601F06BFE0AD200F0ACF926
:1008E000052000F063FE00E004E00920084981F8DB
:1008F000240002E000F0A0F900BF00BFBDE8F081D5
:100900005000002048000020000000204C00002083
:1009100078000020700000200000F0C10000F041CD
:100920000080BB44000034430000A040000034C3FA
:100930000000204000004D43000020412DE9F0411F
:10094000002500240026A3480078B0B9002000F05C
:1009500077FBA1490860A1480068A1490860002010
:10096000A04981F8240081F82500012099490870E8
:1009700000209D49086000F049F9984804689849AA
:100980000968601A01F0E8FD0646964890F82400D0
:100990000A2822D2DFE800F005223C5B778BABC54A
:1009A000E4FE924800F0E4F990498F48006801F0B5
:1009B00031FF20F000474FF07E51384601F0F8FD3E
:1009C0000BD200F039F900F021F983480560844822
:1009D00004600120834981F82400F8E0462000F0FB
:1009E00033F900F07DFD012811D18149304601F035
:1009F000DFFE0CD800F020F9012000F0D7FD76488A
:100A00000560774804600220764981F82400DEE022
:100A1000002000F0ADF900217348006801F0FAFEF3
:100A200020F000474FF07E51384601F0C1FD0DD255
:100A300000F002F94FF47A7001F062FA664805603E
:100A4000674804600320674981F82400BFE0FFF78E
:100A500095FC68496448006801F0DCFE20F000471E
:100A60006549384601F0A4FD0CD200F0E5F80220FB
:100A700000F09CFD5848056059480460052059491C
:100A800081F82400A3E05D4800F072F95949564806
:100A9000006801F0BFFE20F000475749384601F0DA
:100AA00087FD03D205204F4981F824008FE0544888
:100AB00000F05EF952494C48006801F0ABFE20F0AE
:100AC00000474FF07E51384601F072FD0ED200F023
:100AD000B3F8032000F06AFD00F098F83E48056086
:100AE0003F48046006203F4981F824006FE046201B
:100AF00000F0AAF800F0F4FC052811D14149304675
:100B000001F056FE0CD800F097F8042000F04EFDDE
:100B100031480560324804600720324981F82400DA
:100B200055E0344800F024F932492F48006801F0BC
:100B300071FE20F000474FF07E51384601F038FD3D
:100B40000DD200F079F84FF47A7001F0D9F922480B
:100B50000560234804600820224981F8240036E01B
:100B6000FFF70CFC00212048006801F053FE20F044
:100B700000472549384601F01BFD24D2194890F85A
:100B80002500401C174981F82500084690F82500EB
:100B9000042800E018E006DB00F04EF809201149B7
:100BA00081F824000FE000F047F84FF47A7001F06C
:100BB000A7F900F02BF808480560094804600020F8
:100BC000084981F8240002E000F036F800BF00BFB9
:100BD000BDE8F0815C0000205400002000000020EF
:100BE0005800002078000020700000200000F0C1B4
:100BF0000080BB44000034430000A040000034C328
:100C000000004D430000FA440000204110B50120CF
:100C1000034981F82600002000F016F810BD0000FE
:100C20007800002010B504460248047000F004F873
:100C300010BD00007800002010B5002000F048FE34
:100C4000012000F045FE10BD2DE9F0470746414860
:100C500090F8260010B94048007850B93F48006825
:100C60003F49086001203C4908700020394981F85B
:100C700026003B4801683948006801F0CBFD8146F9
:100C80004FF08041484601F0C7FC064635493046E2
:100C900001F08EFD00D2334E3349304601F088FC1E
:100CA00000D2314E0021484601F082FC0CD2384679
:100CB00001F06AFC8046314601F0E2FA044638460B
:100CC00001F062FC054619E00021484601F070FD84
:100CD0000CD2384601F058FC0446384601F054FC6A
:100CE0008046314601F096FD054607E0384601F0A2
:100CF0004BFC0446384601F047FC05461B4920469C
:100D000001F056FD00D2194C0021204601F050FCA4
:100D100000D200241549284601F04AFD00D2134DA7
:100D20000021284601F044FC00D20025204601F0B5
:100D3000F3FB4FFA80F84146002000F04BFD2846B7
:100D400001F0EAFB4FFA80F84146012000F042FD35
:100D5000BDE8F087780000206400002070000020CB
:100D6000600000200000F0410000F0C10000C84217
:100D70002DE9F14F84B0DFF8F0B03C48029007460F
:100D80003B480168049801F045FD044624F000400A
:100D900001902146374800F0EFFD0390039820F0C2
:100DA00000485946404601F003FC00D2D846404670
:100DB000029901F0FDFC01D2DDF808802E4805689B
:100DC0002E49019801F0F4FB05D22D48007810B9A6
:100DD000B8462C4805602B480068281A642805D2BC
:100DE0003946404601F0E4FB00D2B8464FF080415E
:100DF000019801F0DDFB09D8FFF71EFF0020204914
:100E000008701C49886105B0BDE8F08F00212046BC
:100E100001F0CEFC01D2012001E04FF0FF30064688
:100E200017480670002E02DD88F0004000E04046C2
:100E3000009001F055FB0FFA80F9002E01DD4046CD
:100E400001E088F00040009001F04AFB0FFA80FAC0
:100E50004FFA89F1002000F0BDFC4FFA8AF1012021
:100E600000F0B8FC00BFCEE70000344200008C4226
:100E70007000002008000020000000200000204238
:100E80002A0000202C00002010B500F029FB0446A9
:100E90000A2C1ED121480078D8B9FFF7CDFE4FF4B7
:100EA000FA7001F02DF81E480078401C1C490870AB
:100EB00008460078052801DD0120087018480078F0
:100EC000184908701649087800F070FB0120134992
:100ED00008700A2C02D000201049087011480078D0
:100EE000062816D2DFE800F00306090C0F12FFF700
:100EF00045FA11E0FFF792FA0EE0FFF7F7FA0BE080
:100F0000FFF7C8FB08E0FFF719FD05E0FFF798F9C8
:100F100002E0FFF791FE00BF00BF10BD29000020D6
:100F20002800002078000020704710B5012000F054
:100F300029F828B1002000F0C7F8012000F01CF8C3
:100F400010BD10B5022000F01DF828B1012000F0FE
:100F5000BBF8022000F010F810BD10B54FF48070FF
:100F600000F010F830B1002000F0AEF84FF48070BF
:100F700000F002F810BD0000014908607047000051
:100F800014040140014600200022074B1B6803EABD
:100F90000102054B14331B680B4013B10AB1012049
:100FA00000E00020704700000004014000212349B8
:100FB0008279002A3AD00A46126803689A430B469F
:100FC0001A600A1D126803689A430B1D1A600279A1
:100FD00011440A6803681A430A60184A0832126802
:100FE00003689A43154B08331A601A1D1268036888
:100FF0009A43124B0C331A604279102A0ED11A1FF1
:10100000126803681A430D4B08331A601A1D1268E0
:1010100003681A43094B0C331A600DE00749427903
:1010200011440A6803681A430A6005E00279114412
:101030000A6803689A430A60704700000004014090
:10104000014619B90248008800B270470020FCE749
:10105000680000201FB50121092000F0E3FC4FF4D7
:101060008070ADF80C0048208DF80F0003A91448DB
:1010700000F078F80821012000F054F84FF4807057
:10108000019000208DF8080010208DF80900012043
:101090008DF80A0001A8FFF789FF17208DF80000DE
:1010A00000208DF8010001208DF802008DF803006A
:1010B000684600F015FC0020024908601FBD0000D2
:1010C000000C01406800002010B5044654B94FF4EC
:1010D0008071054800F0D1F820B104480068401C38
:1010E0000249086010BD0000000C014068000020AB
:1010F0000549096821F01001034A11601146096889
:1011000001431160704700000020024001460020AA
:10111000034A106800F03800084310607047000070
:101120000020024030B500228B071C0F0F2303FA6A
:1011300004F20B4B8C1053F824309343084C8D1061
:1011400044F8253023468C1053F824308C07240FA4
:1011500000FA04F42343024C8D1044F8253030BDCE
:10116000080001402DE9F04102460025002600203C
:1011700000230024002791F803C00CF00F0591F81C
:1011800003C00CF0100CBCF1000F03D091F802C0AA
:101190004CEA050591F800C0BCF1000F31D014688D
:1011A00000202BE04FF0010C0CFA00F3B1F800C066
:1011B0000CEA03069E4220D183004FF00F0C0CFA7C
:1011C00003F7BC4305FA03FC4CEA040491F803C09E
:1011D000BCF1280F06D14FF0010C0CFA00FCC2F84C
:1011E00014C00AE091F803C0BCF1480F05D14FF0DC
:1011F000010C0CFA00FCC2F810C0401C0828D1D326
:101200001460B1F800C0BCF1FF0F34DD5468002059
:101210002EE000F1080C4FF0010808FA0CF3B1F8C9
:1012200000C00CEA03069E4221D183004FF00F0C50
:101230000CFA03F7BC4305FA03FC4CEA040491F8EA
:1012400003C0BCF1280F05D100F1080C08FA0CF816
:10125000C2F8148091F803C0BCF1480F07D100F127
:10126000080C4FF0010808FA0CF8C2F81080401C76
:101270000828CED35460BDE8F08102460020936870
:101280000B400BB1012000E0002070474161704726
:101290000161704770B50446204600F0C6FC054663
:1012A000611CC8B200F0C1FC064606EB052080B206
:1012B00070BD00BFFEE7000010B540210B48FFF7EE
:1012C000E5FF00F09FFC80210848FFF7DFFF0220C8
:1012D00000F022FE40210548FFF7DAFF022000F06F
:1012E0001BFE40210148FFF7D1FF10BD000C01405B
:1012F00008B50121082000F095FBC020ADF80000E2
:1013000010208DF8030003208DF80200694606487E
:10131000FFF728FF40210448FFF7BAFF8021024869
:10132000FFF7B6FF08BD0000000C014010B54021DA
:101330000B48FFF7ABFF00F065FC80210848FFF782
:10134000A7FF022000F0E8FD40210548FFF7A0FFBD
:10135000022000F0E1FD40210148FFF797FF10BD9A
:10136000000C014070B50546002400F03DFC00264D
:1013700018E040211048FFF789FF022000F0CCFD63
:1013800040210D48FFF784FF6006040E80210A48C3
:10139000FFF773FF08B1601CC4B2012000F0BCFD70
:1013A000701CC6B2082EE4DB15B9FFF7BFFF01E0E1
:1013B000FFF782FF204670BD000C014070B5044667
:1013C00000F020FC40211448FFF760FF00251FE0DB
:1013D000E00920B180211048FFF75AFF03E0802187
:1013E0000D48FFF753FF6006040E022000F094FD45
:1013F00040210948FFF74CFF022000F08DFD4021FD
:101400000548FFF743FF022000F086FD681CC5B2C7
:10141000082DDDDB70BD0000000C014010B500F0B0
:10142000F1FB80210A48FFF733FF40210848FFF70E
:101430002FFF042000F070FD80210548FFF726FFF4
:10144000042000F069FD40210148FFF71FFF10BD97
:10145000000C014010B500F0D5FB40210A48FFF711
:1014600015FF80210848FFF711FF042000F054FD0C
:1014700040210548FFF70CFF80210348FFF708FFD4
:10148000042000F049FD10BD000C014010B50024FF
:1014900000F0AAFB80211148FFF7FAFE012000F0BE
:1014A0003BFD40210D48FFF7F3FE012000F034FD25
:1014B00007E0601CC4B2FA2C03DDFFF7CBFF01206C
:1014C00010BD80210548FFF7D8FE0028F1D140214A
:1014D0000248FFF7DBFE0020F2E70000000C0140AD
:1014E00010B500F035F80446042C13D005DC5CB1CF
:1014F000012C0BD0022C15D10AE0082C0CD00A2CA0
:101500000ED0102C0ED109E0002010BD0120FCE708
:101510000220FAE70320F8E70420F6E70520F4E7C5
:101520000A20F2E70020F0E708B50121042000F0CE
:1015300079FA4FF40F40ADF8000048208DF8030011
:1015400069460248FFF70EFE08BD00000008014092
:1015500010B500244FF480711348FFF78EFE08B9D0
:1015600044F001044FF400710F48FFF786FE08B9FC
:1015700044F002044FF480610B48FFF77EFE08B987
:1015800044F004044FF400610748FFF776FE08B901
:1015900044F008044FF400410348FFF76EFE08B919
:1015A00044F01004204610BD0008014070B5044608
:1015B000002513E04FF400510A48FFF767FE4FF48F
:1015C000967000F09DFC4FF400510648FFF760FE56
:1015D0004FF4967000F094FC681CC5B2A542E9DB9C
:1015E00070BD00000010014008B50121102000F07E
:1015F00019FA4FF40050ADF8000010208DF80300E8
:1016000002208DF8020069460448FFF7ABFD4FF455
:1016100000510248FFF73CFE08BD000000100140E9
:101620002DE9F041104E4720FFF734FE04B220466A
:1016300000F092FF80460D480168404601F0EAF84C
:1016400007460B4900F08AFE05463146284600F061
:10165000E3FF074607480168384600F011FE0549D8
:101660000860BDE8F08100000AD7233C7400002028
:1016700000008342700000202DE9F04100244FF467
:101680009677002509E04720FFF704FE06B23444B0
:101690000A2000F035FC681C85B2B5F5967FF2DBB8
:1016A000204600F059FF0646044900F057FE044961
:1016B00008600220FFF77AFFBDE8F0810000964342
:1016C0007400002010B5FFF713FE0A2000F018FC8C
:1016D00080216B2000F0C6FA322000F011FC0921B5
:1016E0006B2000F0BFFA0021192000F0BBFA0321A3
:1016F0001A2000F0B7FA08211B2000F0B3FA752079
:1017000000F093FA0446702C01D0002010BD012097
:10171000FCE700BFFEE7000000B589B0012105200D
:1017200000F080F90121022000F06CF93C20ADF8B6
:10173000200010208DF8230003208DF8220008A936
:101740002248FFF70FFDC020ADF8200018208DF8CB
:10175000230003208DF8220008A91C48FFF702FD92
:1017600040F2E730ADF818004720ADF81400002033
:10177000ADF81A00ADF8160005A9154800F09EFB5B
:101780006020ADF804000120ADF806000020ADF89F
:101790000A00ADF80C0001A90D4800F0E9FA01A912
:1017A0000B4800F02BFB0821094800F01DFB082125
:1017B000074800F071FB0121054800F0C1FA012142
:1017C000034800F0C9FA09B000BD0000000801405C
:1017D0000004004070B505460C46642C00DD64240E
:1017E00014F1640F01DA6FF06304ADBB002C11DD5E
:1017F00008213548FFF74CFD04213348FFF746FD2B
:1018000004EB84004FF6FF7202EA40012F4800F01B
:1018100050FB57E0002C12DA08212B48FFF736FD69
:1018200004212948FFF734FD604200EB80004FF6A9
:10183000FF7202EA4001254800F03BFB42E008212C
:101840002148FFF723FD04211F48FFF71FFD00215A
:101850001E4800F02EFB35E0FFE7002C11DD1021C3
:101860001948FFF715FD20211748FFF70FFD04EB7E
:1018700084004FF6FF7202EA4001144800F01BFB9F
:1018800020E0002C12DA10210F48FFF7FFFC202186
:101890000D48FFF7FDFC604200EB80004FF6FF7241
:1018A00002EA4001094800F006FB0BE0102106485F
:1018B000FFF7ECFC20210448FFF7E8FC0021034877
:1018C00000F0F9FA70BD000000080140000400407B
:1018D00010B5044600212046FFF77CFF10BD70477D
:1018E00070B5002100230F22C47804B3154C24687E
:1018F00004F4E064C4F5E064210AC1F10403CA40C1
:10190000447804FA03F184781440214309010E4C11
:101910000678A155047804F01F050124AC40057831
:101920006D11AD0005F1E025C5F8004109E004782E
:1019300004F01F050124AC40044D0678761145F8EB
:10194000264070BD0CED00E000E400E080E100E026
:1019500010B5002807DA0A07140E054A00F00F0335
:101960001B1FD45403E00A07130E024A135410BD80
:1019700018ED00E000E400E02DE9F04104460D46DA
:101980002E463146A06900F07BFCA0611449A06995
:1019900000F00EFF01D21248A0611249A06900F0C8
:1019A00007FE01D20F48A0613146206800F034FEE6
:1019B00007460D4900F064FCE06166610849E06992
:1019C00000F0F6FE01D20648E0610021E06900F077
:1019D000EFFD01D20020E061E069BDE8F081000088
:1019E0000000C8420000C8C20000204210B50160DB
:1019F000426083600024046144618461C46110BD5D
:101A00007047000029B1064AD2690243044BDA61EB
:101A100004E0034AD2698243014BDA617047000057
:101A20000010024029B1064A92690243044B9A61B0
:101A300004E0034A92698243014B9A6170470000B7
:101A4000001002400F48006840F001000D49086096
:101A5000084640680C4908400A4948600846006842
:101A60000A490840074908600846006820F48020B9
:101A700008600846406820F4FE0048604FF41F00EC
:101A800088607047001002400000FFF8FFFFF6FE7C
:101A900010B501460022002300204A11012A02D17C
:101AA000094C236806E0022A02D1074C236A01E0B0
:101AB000054C636A01F01F02012494401C400CB1E4
:101AC000012000E0002010BD0010024002484068E4
:101AD00000F00C007047000000100240014600209A
:101AE000034A506820F0F00008435060704700003F
:101AF000001002401149096821F480310F4A116039
:101B00001146096821F480211160B0F5803F03D0AF
:101B1000B0F5802F0ED106E00849096841F4803104
:101B2000064A116007E00549096841F4A021034A0B
:101B3000116000E000BF00BF7047000000100240CD
:101B400001460020034A506820F4E06008435060DA
:101B5000704700000010024001460020034A506810
:101B600020F4605040EAC10050607047001002400D
:101B7000014908667047000000004242024600200A
:101B8000044B586820F47C1042EA01031843014BCF
:101B9000586070470010024001460020034A506818
:101BA00020F003000843506070470000001002401E
:101BB00038B5002000900024002500BF3120FFF739
:101BC00067FF05460098401C00900098B0F5A06F94
:101BD00001D0002DF2D03120FFF75AFF08B10124C7
:101BE00000E00024204638BD08B58020ADF8000094
:101BF00048208DF8030069460148FFF7B3FA08BD95
:101C0000000C014008B58020ADF8000010208DF8D0
:101C1000030003208DF8020069460248FFF7A2FA8C
:101C200008BD0000000C0140704770B50446FFF786
:101C3000F5FBD020FFF7C2FBFFF728FC2046FFF79B
:101C4000BDFBFFF723FCFFF7E9FBD120FFF7B6FB55
:101C5000FFF71CFC0020FFF785FB0546FFF7FAFBAA
:101C6000284670BD70B505460C46FFF7D7FBD0205F
:101C7000FFF7A4FBFFF70AFC2846FFF79FFBFFF7DF
:101C800005FC2046FFF79AFBFFF700FCFFF7E2FB9D
:101C900070BD000010B509480068401C0749086085
:101CA00007480078401C06490870084600780A2852
:101CB00003DB00200870FFF7B3FC10BD000000201C
:101CC0000400002010B5FFF7BDFE4FF48030FFF791
:101CD00011FFFFF76DFF01282AD10220FFF716FA46
:101CE0001020FFF705FA4FF4E0114FF48030FFF7B2
:101CF00045FF0120FFF73CFF00BF3920FFF7C8FE7A
:101D00000028FAD00220FFF747FF00BFFFF7DEFEF2
:101D10000828FBD10020FFF7E1FE4FF48060FFF7B9
:101D20000FFF0020FFF718FF03480449086001E097
:101D300000BFFEE710BD000000A24A046C000020B6
:101D400021B1028842F08002028004E0028840F261
:101D50007F331A400280704721B1028842F00102AD
:101D6000028004E0028840F2FE331A40028070478D
:101D700070B5002400220023058C4FF6FE76354016
:101D80000584028C8388048B4FF68C752C400D885B
:101D90002C43751E2A400D892A434D882A43104D35
:101DA000A84202D00F4DA84213D14FF6F7752A4032
:101DB0004D892A434FF6FB752A408D882A4347F602
:101DC000FF652B4047F6FF552B408D892B43CD896E
:101DD0002B4383800483CD888586028470BD0000F8
:101DE000002C0140003401400A460021018B4FF6CF
:101DF000F7731940114301837047000070B5002448
:101E000000220023058C4FF6EF7635400584028CC6
:101E10008388048B48F6FF452C400D884FF6FF76EB
:101E200006EA05252C434FF6DF752A400D8906EAA0
:101E300005152A434D8806EA05152A43144DA84284
:101E400002D0144DA8421DD14FF67F752A404D890E
:101E50004FF6FF7606EA05152A434FF6BF752A406E
:101E60008D8806EA05152A4347F6FF352B4047F2D1
:101E7000FF752B408D8906EA85052B43CD8906EA3F
:101E800085052B4383800483CD880587028470BD3C
:101E9000002C0140003401400A460021018B4FF222
:101EA000FF7319404FF6FF7303EA022319430183BE
:101EB000704781867047018770470000028802F0F2
:101EC0008F020280CA884B881A4303881A43028013
:101ED0008A8882850A880285054A904202D0054A8E
:101EE000904201D10A7A0286012282827047000064
:101EF000002C01400034014000BFFEE770470000A5
:101F0000044A116800BF034A1268521A8242FAD387
:101F1000704700000000002070B5024672B64FF016
:101F2000E0256B69A9690A4D2D680A4EB5FBF6F5E7
:101F300005FB02F400BF4FF0E025A869884201D9F3
:101F4000401A01E05D1A2844A042F4D362B670BD85
:101F50006C00002040420F00FFF7B4FE4820FFF75E
:101F6000CDFF234800684FF47A71B0FBF1F5B5F16D
:101F7000807F01D3012011E025F07F40401E4FF00B
:101F8000E02148610F214FF0FF30FFF7E1FC002016
:101F90004FF0E021886107200861002008B100BFF0
:101FA000FEE70021481EFFF7D3FCFFF7BDFAFFF75D
:101FB000B3FBFFF74FF8FFF717FBFFF783FB044670
:101FC00024B90420FFF7F2FA00BFFEE70320FFF771
:101FD000EDFAFFF751FBFEF7C3F90520FEF722FEED
:101FE00004E0FEF751FF0520FFF78AFFF9E7000044
:101FF0006C00002021F00042A2F16052B2F5801F77
:1020000001F0004328BFD2F17F6C0BD95FEA001CBE
:1020100043EAC20242EB507018BF704728BF20F05D
:1020200001007047B2F5801FBCBF184670474FEAE9
:10203000410C1CF5001F02D2084600F0B4BB70B57D
:1020400000F0CAF800000089FFF7F6BF4FF000402B
:10205000A0F58000704710F0004248BF4042B0FA3F
:1020600080F310FA03F10AD0C3F11D0303F5806376
:102070004FEA415002EB035202EBD12170474FF07F
:1020800000007047DFF848C170B51CEA111E1EBF82
:102090001CEA13159EEA0C0F95EA0C0F00F06F80F6
:1020A00081EA030423EA4C134EEAD47E21EA4C1160
:1020B00041F4801143F48013AE44A1FB024CA0FB19
:1020C0000365AEF17F7E361955EB0C05A1FB034C81
:1020D0004CF10003A0FB021C16EB0C06654153F10A
:1020E0000003094218BF46F0010613F4007F0BD12C
:1020F0004FEA03314FEA0530340341EA155140EA13
:1021000016506FF003020AE04FEAC3214FEAC520E0
:10211000F40241EA555140EA56506FF0020202EBD8
:102120002E4201EB025585EACE710AD05FEA440CDB
:1021300018BF24F0004450F1000041F1000120EAF2
:10214000D47040F2FE7C624500D270BDA84214BF3C
:102150004FF080444FF04044002E08BF0024BEF1F1
:10216000806FA8BFA1F1C041BDE8704080F28280BD
:102170004FF0000001F1C04101F0004170479EEABC
:102180000C0F0CEA131518BF95EA0C0F06D04FF090
:10219000000081EA030E0EF0004170BD00F01CF853
:1021A0008900013E00F007B800F009B84FEA430C7F
:1021B0005FEA5C5C08D081EA030100F05BB84FEA9B
:1021C000410C5FEA5C5CF6D14FF0000001497047BA
:1021D0000000FF070000F87F0EF1020E2EF0030E44
:1021E0005EF8046B364205D4012A43EB030515F56E
:1021F000001F12D8012841EB010C1CF5001F0CD860
:102200000ED14FEAD17C15F5001F0CEB4C0C0CF1F4
:10221000020C08BF4CEBD37C04E04FF0080C01E04B
:102220004FEAD37C0CEB4C0526FA05F606F00706C0
:10223000B6F1040C06D20EEB860CBDE870404CF0F3
:10224000010C6047DFE80CF0090B02024FF000417F
:102250004FF00000A1F5002170BD1946104601287D
:1022600051EB010418BFD4F5001484BF002001F025
:10227000004170BD0808A0F500114FEA3101704718
:1022800090EA010F48BF81F0004100F1CA82421A72
:102290003CBF801A89184FEAD0524FF07F4C1CEA9D
:1022A000410FA2EBD15318BF9CEA026F00F03B80B4
:1022B0004FF0004C4CEA00204CEA012121FA03FCCB
:1022C00010EB0C0C1ED202F1FF325FEA1C2040EB37
:1022D000C25038BF70471CF07F0F4FEA400C18BF48
:1022E000BCF17F4F38BF7047C3F12003994008BF4E
:1022F00020F00100BCF17F4F38BF7047A0F1C04013
:1023000000F051BA4FEA3C00000A40EBC25028BF2F
:102310001CF0FF0F4FEA400CE6D018BFBCF17F4F16
:1023200038BF7047EAE79CEA026F05D010EA5C0FFD
:1023300008BF00F00040704710B500F0EEF900BF94
:1023400064FBBE3E401058BFC0F14040491058BF2A
:10235000C1F140418142EFF3008070474FF47F0CA0
:102360001CEAD0121EBF1CEAD11392EA0C0F93EAAA
:102370000C0F00F0858090EA010F48BF42F4807294
:1023800040F4000C41F400002CF07F4120F07F402D
:1023900000B58142A2EB03020FF2081CACEB504ED9
:1023A000C0F100009EF800E04FEA4E0E00FB0EFC6C
:1023B00038BF49004FEA2C1C02F5FA020CFB0EF361
:1023C0004FEACE1E4FEA112C4FEAC1210EEB635E9D
:1023D00042EB22420EFB0CFC4FEA1C5300FB0311A4
:1023E0004FEA112C4FEA01310EFB0CFC4FEADC4C9A
:1023F00000FB0C11C14228BF09184CEB03335DF8F8
:1024000004EB10EB410143EBC250B2F57C0F38BF37
:10241000704729D512F0F00F1CBF00F1C04000F04A
:1024200000407047008182838485868788898B8CF1
:102430008D8E8F919293959697999A9C9D9FA0A22D
:10244000A3A5A7A8AAACAEB0B2B3B5B7B9BCBEC07D
:10245000C2C5C7C9CCCED1D4D7D9DCDFE2E6E9EC1E
:10246000F0F3F7FAFE0000004FEA400C0CF1807C1C
:10247000BCF17E4F28BF7047B0F1C04000F093B967
:1024800090EA010F0CEAD11348BF42F48072624512
:1024900038BF634507D213F47F0F16D080EA0100DE
:1024A00000F00040704710B500F037F9097EFC3E9F
:1024B00000F005B880EA010000F00040704780EAB3
:1024C000010000F0004000F06EB912F47F0F04BF6D
:1024D0000248704780EA010000F065B90000C07F43
:1024E00041000B0ED3F19E0208D950F400034FEACD
:1024F000032323FA02F048BF4042704710B500F0B2
:102500000CF900BF49922480002070476FF0004210
:1025100082EA200070470000C10DD1F19E0206DB67
:102520004FEA002343F0004323FA02F070470042D1
:1025300007D54FEA4001B1F1FE4F02D24FF0000043
:10254000704710B500F0E9F84992248000207047E8
:102550006FEA20007047000010F0004148BF404281
:10256000B0FA80F310FA03F2C3F19D030BD051EAE5
:10257000C35101EB1220530638BF704700F1010030
:1025800008BF20F001007047B0FA80F310FA03F2A0
:10259000C3F19D030AD0D90501EB1220530638BFC1
:1025A000704700F1010008BF20F0010070470000F3
:1025B00050EA010C00F113801CF5000F58BFBCF568
:1025C000000F01D48842704707D710F5000F58BF9D
:1025D00011F5000F15D488427047894270471CF5E9
:1025E000000F04D5BCF5000FF7D5814270474FF0BE
:1025F000807C1CEB400F38BF1CEB410F01D28142A5
:10260000704710B500F089F8922449004FF000504F
:102610004FF08051FFF796BE4FF47F0C1CEAD012AA
:102620001EBF1CEAD11392EA0C0F93EA0C0F00F0C4
:10263000478090EA010F48BF42F480724FF0004C8F
:102640004CEA00204CEA012102EB0302A0FB01133B
:10265000A2F50002002918BF43F001035B0028BF68
:102660004FEA330342EB22425FEA132C4CEBC25099
:102670002EBFBCEB436FB2F57C0F70474FEA036C83
:10268000BCF1004F08BF20F00100B2F57C0F38BF4D
:1026900070470BD582F0FF0212F5803FC8BF70472C
:1026A00000F1C040D8BF00F00040704700F5000CBA
:1026B0005FEA4C0C48BF7047B0F1C04000F073B8FF
:1026C00090EA010F0CEAD11348BF42F480726245D0
:1026D00038BF634504D280EA010000F00040704733
:1026E00010B500F01AF800BF8900013E00F007B8ED
:1026F00000F009B85FEA410C5FEA1C6C08D080EA80
:10270000010000F050B85FEA400C5FEA1C6CF6D1A3
:102710004FF00040A0F5800070470EF1020E2EF041
:10272000030E5EF8044B244204D44FEA4102B2F196
:102730007F4F11D84FEA4003B3F17F4F0CD80ED131
:102740004FEAD07CB2F17F4F0CEB4C0C0CF1020C39
:1027500008BF4CEBD17C04E04FF0080C01E04FEADD
:10276000D17C0CEB4C0324FA03F404F00704B4F11D
:10277000040C06D20EEB840CBDE810404CF0010CAA
:102780006047DFE80CF0070802024FF00040A0F5B8
:10279000800010BD0846420018BFD2F1807288BF89
:1027A00000F0004010BDFF2141EAD050C005704745
:1027B00051EA000C00F113801CF5000F58BFBCF566
:1027C000000F01D48142704707D711F5000F58BFA1
:1027D00010F5000F15D481427047894270471CF5EF
:1027E000000F04D5BCF5000FF7D5884270474FF0B5
:1027F000807C1CEB410F38BF1CEB400F01D288429C
:10280000704780EA010081EA000180EA0100FFF7D9
:10281000F8BE000090EA010F48BF81F000413FF58B
:1028200036AD421A04D882F00042A0EB02001144F7
:102830004FEAD0524FF07F4C1CEA410FA2EBD1532C
:1028400018BF9CEA026F4AD04FF0004C4CEA0020BF
:102850004CEA012121FA03FCB0EB0C0C0FD412F06E
:10286000FE0F36D05FEA4C001DD5001240EBC2507F
:1028700038BF70471CF03F0F18BF70470BE0A2F144
:1028800001025FEA1C2040EBC25038BF70471CF0C9
:102890007F0F18BF7047C3F12003994014BF401E3B
:1028A00020F00100704780084FEA122308BF7047EC
:1028B000B0FA80FCA2EB0C02CCF1280C60FA0CF010
:1028C00093EA122F04BF00EBC25070474FEAC37067
:1028D0007047130A5FEADC1008BF7047F6E79CEA0E
:1028E000026F04D010EA5C0F08BF0020704710B5DB
:1028F000FFF713FF40DFF63E81F000407047000015
:1029000020290008000000207800000028010008AD
:10291000982900087800002088060000440100087B
:1029200000000000000000000000803F00000000E8
:102930000000003F00000000000000000000000058
:102940000000000000000000000000000000000087
:102950000000000000000000000000000000000077
:102960000000000000000000000000000000000067
:102970000000000000000000000000000000000057
:1029800000000000000000000000000000A24A0457
:0829900000000000000000003F
:04000005080000ED02
:00000001FF
