:020000040800F2
:10000000D806002089010008EB180008C712000874
:100010001F1700083B020008051F00080000000031
:10002000000000000000000000000000551C000857
:100030003D0F0008000000002D1A0008C11C000838
:100040009F0100089F0100089F0100089F01000810
:100050009F0100089F0100083F0F0008570F00088C
:100060009F0100089F0100089F0100089F010008F0
:100070009F0100089F0100089F0100089F010008E0
:100080009F0100089F0100089F0100089F010008D0
:100090009F0100089F0100089F0100086F0F0008E2
:1000A0009F0100089F0100089F0100089F010008B0
:1000B0009F0100089F010008000000009F01000848
:1000C0009F01000800000000000000009F010008E0
:1000D000000000009F0100089F01000800000000D0
:1000E0009F0100089F0100089F01000800F002F82E
:1000F00000F03AF80AA090E8000C82448344AAF188
:100100000107DA4501D100F02FF8AFF2090EBAE885
:100110000F0013F0010F18BFFB1A43F0010318473B
:100120000428000024280000103A24BF78C878C1B1
:10013000FAD8520724BF30C830C144BF04680C60ED
:10014000704700000023002400250026103A28BF35
:1001500078C1FBD8520728BF30C148BF0B60704739
:100160001FB51FBD10B510BD00F02DF81146FFF7EB
:10017000F7FF01F0F7FE00F04BF803B4FFF7F2FFD2
:1001800003BC00F053F8000008480047FEE7FEE714
:10019000FEE7FEE7FEE7FEE7FEE7FEE7FEE7FEE737
:1001A00003480449044A054B70470000ED0000086D
:1001B000D8000020D8060020D8020020D802002055
:1001C000704770477047754600F02CF8AE46050042
:1001D0006946534620F00700854618B020B5FFF762
:1001E000DFFFBDE820404FF000064FF000074FF062
:1001F00000084FF0000B21F00701AC46ACE8C00945
:10020000ACE8C009ACE8C009ACE8C0098D4670474D
:1002100010B50446AFF300802046BDE81040FFF75C
:10022000ACBF00000048704774000020014918204E
:10023000ABBEFEE726000200704700BFFEE70000ED
:1002400000B54FF07E5300220249034801F0E4FB61
:1002500000BD000000007841500000202DE9F0476B
:10026000414E01F047F904460A2C04D1012001F067
:10027000A7F9BDE8F0875CB93C480078401C3B49D1
:10028000087008460078002807DD3948047804E043
:1002900000203649087036480470062C10D2DFE87A
:1002A00004F0030507090B0D00250BE0314D09E0B3
:1002B000304D07E0002505E02F4D03E02D4D01E016
:1002C000002500BF00BF29462C4801F05BFB80469B
:1002D000002C16DD032C14DA4146304602F0ACFA4D
:1002E000814602F005F947B23946002001F078FA5C
:1002F000304602F0FDF847B23946012001F070FAAD
:1003000030E0062C16DA032C14DD304602F0F0F84B
:1003100047B23946002001F063FA4146304602F008
:100320008BFA814602F0E4F847B23946012001F029
:1003300057FA17E01249304602F07EFA814602F081
:10034000D7F847B23946002001F04AFA0D49304645
:1003500002F072FA814602F0CBF847B2394601202A
:1003600001F03EFA00BF84E700008C420700002045
:100370000600002000009040666696405000002075
:100380000000A040000020412DE9F0470024A146D4
:100390002048007880B9002000F05CFE1E4908600B
:1003A00000201E4981F8240001201A49087000200D
:1003B0001B49086000F0EAFB002000F04BFE0446F9
:1003C00015490968601A01F04EFE0746154A164B9A
:1003D00001F060FE054601F015FE81460F4890F8D9
:1003E000240010B1012812D10EE0642000F0F0FBCF
:1003F0000E49484602F0E4F905D800F0E1FB01207F
:10040000064981F8240002E000F0DAFB00BF00BFDB
:10041000BDE8F08718000020140000204C000020E8
:1004200044000020FBB0DEA81556F03F0000AA42B1
:100430002DE9F0470024A246A1466848007880B91B
:10044000002000F007FE664908600020654981F839
:10045000240001206149087000206349086000F011
:1004600095FB002000F0F6FD04465D490968601A1E
:1004700001F0F9FD07465D4A5D4B01F00BFE0546B4
:1004800001F0C0FD8246574890F8240006281AD291
:10049000DFE800F0031A4360779D642000F098FBCA
:1004A0005449504602F08CF902D901F023F850B1BA
:1004B00000F086FB012001F083F849480460012028
:1004C000484981F8240085E001F014F88146B9F12B
:1004D000000F05D148480078401C4749087002E0E9
:1004E000002045490870FFF7B9FE4449504602F024
:1004F00067F911D8404800783C280DDB00F060FB1C
:10050000022001F05DF8364804600220354981F888
:1005100024000020384908705CE0394800F0ECFB0A
:1005200037493148006801F0B3FE20F000453549F5
:10053000284602F045F80CD200F028FB0320294998
:1005400081F82400012001F03BF800F039FB244839
:1005500004603FE0642000F03BFB2B49504602F072
:100560002FF902D900F0C6FF50B100F029FB03209B
:1005700001F026F81A48046004201A4981F8240082
:1005800028E000F0B7FF8146B9F1000F05D11A4805
:100590000078401C1849087002E0002016490870D5
:1005A000FFF75CFE1549504602F00AF90ED81248D2
:1005B00000783C280ADB00F003FB042001F000F87F
:1005C000074804600520074981F8240002E000F094
:1005D000F7FA00BF00BFBDE8F08700002000002050
:1005E0001C0000204C00002044000020FBB0DEA8CE
:1005F0001556F03F0000AA4221000020EC51D342E2
:1006000000003443000020400000B4422DE9F047D0
:100610000024A246A1469B48007870B9002000F053
:1006200019FD994908600020984981F824000120AB
:1006300094490870002096490860002000F00AFDE7
:10064000044691490968601A01F00DFD0746914A78
:10065000914B01F01FFD054601F0D4FC82468B480A
:1006600090F824000A2820D2DFE800F00520375057
:100670007991AEC5DDFE894800F03EFB874984488C
:10068000006801F005FE20F000454FF0804128464B
:1006900001F096FF09D200F093FA00F077FA7A4859
:1006A00004600120794981F82400E8E0642000F02A
:1006B0008FFA7B49504602F083F802D900F01AFF06
:1006C00050B100F07DFA012000F07AFF6E4804601E
:1006D00002206E4981F82400D1E0002000F00CFBDC
:1006E00000216B48006802F0A7F820F000454FF0A9
:1006F0008041284601F064FF07D200F061FA6248A9
:1007000004600320614981F82400B8E000F0F2FEA3
:100710008146B9F1000F05D162480078401C61495B
:10072000087002E000205F490870FFF797FD5E49FE
:10073000504602F045F811D85A4800783C280DDBA5
:1007400000F03EFA022000F03BFF4F480460042016
:100750004E4981F824000020524908708FE0534828
:1007600000F0CAFA52494A48006802F065F820F0E1
:1007700000455049284601F023FF07D200F020FA37
:10078000414804600520414981F8240077E04A4847
:1007900000F0B2FA49493E48006802F04DF820F0F6
:1007A00000454449284601F00BFF0CD200F008FA3E
:1007B000032000F005FF00F0E9F93348046006204B
:1007C000324981F824005AE0642000F001FA3C49E3
:1007D000504601F0F5FF02D900F08CFE50B100F058
:1007E000EFF9042000F0ECFE2748046007202749B9
:1007F00081F8240043E02D4800F07EFA2C4924487B
:10080000006802F019F820F000452A49284601F056
:10081000D7FE07D200F0D4F91B48046008201B491A
:1008200081F824002BE000F065FE8146B9F1000F4D
:1008300005D11C480078401C1A49087002E00020CD
:1008400018490870FFF70AFD1E49504601F0B8FF2D
:1008500011D81448007828280DDB00F0B1F90520E4
:1008600000F0AEFE092000E006E0084981F824000F
:1008700000200C49087002E000F0A2F900BF00BFA0
:10088000BDE8F08728000020240000204C00002054
:1008900044000020FBB0DEA81556F03FD7A30E425F
:1008A000B81EBE4229000020EC51CF42000034C3E4
:1008B0000000344300002040F6A870C3F6A870433F
:1008C000B81EDC42EC51D3422DE9F0470024A24689
:1008D000A1469C48007890B9002000F0BBFB9A49E3
:1008E00008600020994981F8240081F82500012042
:1008F0009449087000209649086000F047F90020EC
:1009000000F0A8FB044690490968601A01F0ABFBAF
:100910000746904A904B01F0BDFB054601F072FB83
:1009200082468A4890F824000A2820D2DFE800F0A6
:100930000520344D70849EB2CDFA884800F0DCF971
:1009400086498348006801F0A3FC20F000454FF081
:100950008041284601F034FE09D200F031F900F060
:1009600015F9794804600120784981F82400E6E00F
:10097000642000F02DF97A49504601F021FF0AD891
:1009800000F01EF9012000F01BFE6F4804600220F9
:100990006E4981F82400D2E0002000F0ADF900217A
:1009A0006B48006801F048FF20F000454FF080419F
:1009B000284601F005FE07D200F002F96248046003
:1009C0000320624981F82400B9E000F093FD8146DC
:1009D000B9F1000F05D163480078401C61490870E7
:1009E00002E000205F490870FFF738FC5E4950467E
:1009F00001F0E6FE0BD85B480078282807DB00F002
:100A0000DFF8514804600420504981F8240096E042
:100A1000564800F071F956494D48006801F00CFF46
:100A200020F000455349284601F0CAFD03D20520B5
:100A3000464981F8240082E04F4800F05DF94F49B3
:100A40004348006801F0F8FE20F000454C49284674
:100A500001F0B6FD09D200F0B3F800F097F83A487B
:100A600004600620394981F8240068E0642000F021
:100A7000AFF84449504601F0A3FE0AD800F0A0F8B0
:100A8000032000F09DFD3048046007202F4981F8C5
:100A9000240054E0354800F02FF935492C4800680F
:100AA00001F0CAFE20F000453549284601F088FDD6
:100AB0000AD200F085F8244804600820234981F810
:100AC000240000202249086039E000F013FD81462F
:100AD000B9F1000F05D123480078401C2149087066
:100AE00002E000201F490870FFF7B8FB2649504676
:100AF00001F066FE1FD81B48007828281BDB13482E
:100B000090F82500401C114981F82500084690F80E
:100B10002500042807DB00F053F809200B4981F871
:100B2000240008E008E0084804600020074981F834
:100B300024000C49087002E000F042F800BF00BF3A
:100B4000BDE8F087300000202C0000204C00002081
:100B500044000020FBB0DEA81556F03FD7A31A4290
:100B6000B81EBE4231000020EC51CF42000034C319
:100B7000000034430000A040F6A85AC3F6A85A4328
:100B800000002040B81EDC42EC51DD4210B50120CF
:100B9000034981F82600002000F01AF810BD00007B
:100BA0004C00002010B504460448047000F008F81A
:100BB0004FF47A7001F0AAF910BD00004C0000203B
:100BC00010B5002000F08AFE012000F087FE10BD65
:100BD0002DE9F0470746414890F8260010B94048F3
:100BE000007850B93F4800683F49086001203C49FF
:100BF00008700020394981F826003B4801683948CF
:100C0000006801F019FE81464FF08041484601F02E
:100C10000BFD06463549304601F0D2FD00D2334E79
:100C20003349304601F0CCFC00D2314E0021484619
:100C300001F0C6FC0CD2384601F0AEFC80463146CD
:100C400001F026FB0446384601F0A6FC054619E0F3
:100C50000021484601F0B4FD0CD2384601F09CFC5E
:100C60000446384601F098FC8046314601F0E4FD28
:100C7000054607E0384601F08FFC0446384601F08F
:100C80008BFC05461B49204601F09AFD00D2194C09
:100C90000021204601F094FC00D20024154928468A
:100CA00001F08EFD00D2134D0021284601F088FC92
:100CB00000D20025204601F037FC4FFA80F841466B
:100CC000002000F08DFD284601F02EFC4FFA80F840
:100CD0004146012000F084FDBDE8F0874C00002073
:100CE0003800002044000020340000200000F041C3
:100CF0000000F0C10000C8422DE9F84F82460024F0
:100D0000002600275C480168504601F0C1FA0446FD
:100D100024F000494FF08041484601F051FC09D8C9
:100D2000002000F0DBFD012000F0D8FD0020534939
:100D300008709FE0524805685048007808B951484B
:100D4000056050480068281A4F4908600021204675
:100D500001F036FD01D2012001E04FF0FF30804666
:100D6000464880F8008024F000494849484601F090
:100D700027FD03D25A200746064623E024F0004907
:100D80004349484601F01CFD03D250200746064661
:100D900018E024F000493F49484601F011FD03D214
:100DA0004620074606460DE024F000493A494846E9
:100DB00001F006FD03D23C200746064602E037203C
:100DC0000746064630480068642802D2502650275D
:100DD0003AE024F000492F49484601F0F1FB33D2B4
:100DE00029480068B0F5967F2ED927490968A1F5F2
:100DF000967001F0D1FB2949009001F0B7FA8346C3
:100E00004FF07E5101F00DFD81464FF07C51484678
:100E100001F0D6FB01D24FF07C59304601F0A4FB23
:100E20004946009001F000FC834601F061FB06B2E8
:100E3000384601F099FB4946009001F0F5FB8346E6
:100E400001F056FB07B200BFB8F1000F09DD71B227
:100E5000002000F0C5FC784241B2012000F0C0FC47
:100E600008E0704241B2002000F0BAFC79B20120E3
:100E700000F0B6FCBDE8F88F440000201000002010
:100E800000000020080000200C0000200000B442F8
:100E900000008C42000048420000F04100007A440B
:100EA00010B500F027FB04460A2C1ED1204800781C
:100EB000D8B9FFF785FE4FF4FA7001F027F81D4806
:100EC0000078401C1B49087008460078042801DDA2
:100ED00001200870174800781749087015490878EC
:100EE00000F06EFB0120124908700A2C02D000208D
:100EF0000F49087010480078052813D2DFE800F089
:100F00000306090C0F00FFF7A9F90EE0FFF73CFA02
:100F10000BE0FFF78DFA08E0FFF778FB05E0FFF73D
:100F2000D3FC02E0FFF74CFE00BF00BF10BD000085
:100F300005000020040000204C000020704710B580
:100F4000012000F029F828B1002000F0C7F80120A6
:100F500000F01CF810BD10B5022000F01DF828B1FB
:100F6000012000F0BBF8022000F010F810BD10B511
:100F70004FF4807000F010F830B1002000F0AEF8AF
:100F80004FF4807000F002F810BD000001490860C5
:100F90007047000014040140014600200022074B66
:100FA0001B6803EA0102054B14331B680B4013B1A5
:100FB0000AB1012000E00020704700000004014059
:100FC000002123498279002A3AD00A461268036830
:100FD0009A430B461A600A1D126803689A430B1D58
:100FE0001A60027911440A6803681A430A60184AB1
:100FF0000832126803689A43154B08331A601A1DA9
:10100000126803689A43124B0C331A604279102A13
:101010000ED11A1F126803681A430D4B08331A6069
:101020001A1D126803681A43094B0C331A600DE04D
:101030000749427911440A6803681A430A6005E0C7
:10104000027911440A6803689A430A6070470000F5
:1010500000040140014619B90248008800B27047F7
:101060000020FCE73C0000201FB50121092000F012
:10107000EFFC4FF48070ADF80C0048208DF80F00A5
:1010800003A9144800F078F80821012000F054F872
:101090004FF48070019000208DF8080010208DF82A
:1010A000090001208DF80A0001A8FFF789FF172029
:1010B0008DF8000000208DF8010001208DF802005D
:1010C0008DF80300684600F011FC0020024908601A
:1010D0001FBD0000000C01403C00002010B504467C
:1010E00054B94FF48071054800F0D1F820B104489C
:1010F0000068401C0249086010BD0000000C01405F
:101100003C0000200549096821F01001034A1160E4
:101110001146096801431160704700000020024039
:1011200001460020034A106800F0380008431060B0
:10113000704700000020024030B500228B071C0FD2
:101140000F2303FA04F20B4B8C1053F82430934313
:10115000084C8D1044F8253023468C1053F8243069
:101160008C07240F00FA04F42343024C8D1044F83A
:10117000253030BD080001402DE9F0410246002530
:101180000026002000230024002791F803C00CF063
:101190000F0591F803C00CF0100CBCF1000F03D048
:1011A00091F802C04CEA050591F800C0BCF1000FAF
:1011B00031D0146800202BE04FF0010C0CFA00F342
:1011C000B1F800C00CEA03069E4220D183004FF024
:1011D0000F0C0CFA03F7BC4305FA03FC4CEA0404B9
:1011E00091F803C0BCF1280F06D14FF0010C0CFAA6
:1011F00000FCC2F814C00AE091F803C0BCF1480F2B
:1012000005D14FF0010C0CFA00FCC2F810C0401CD4
:101210000828D1D31460B1F800C0BCF1FF0F34DD51
:10122000546800202EE000F1080C4FF0010808FA85
:101230000CF3B1F800C00CEA03069E4221D18300F2
:101240004FF00F0C0CFA03F7BC4305FA03FC4CEA11
:10125000040491F803C0BCF1280F05D100F1080C7B
:1012600008FA0CF8C2F8148091F803C0BCF1480FDA
:1012700007D100F1080C4FF0010808FA0CF8C2F889
:101280001080401C0828CED35460BDE8F08102468F
:10129000002093680B400BB1012000E00020704754
:1012A000416170470161704770B50446204600F007
:1012B000D2FC0546611CC8B200F0CDFC064606EB28
:1012C000052080B270BD00BFFEE7000010B54021D0
:1012D0000B48FFF7E5FF00F0ABFC80210848FFF763
:1012E000DFFF022000F01EFE40210548FFF7DAFF75
:1012F000022000F017FE40210148FFF7D1FF10BD8A
:10130000000C014008B50121082000F0A1FBC0201D
:10131000ADF8000010208DF8030003208DF80200C6
:1013200069460648FFF728FF40210448FFF7BAFF47
:1013300080210248FFF7B6FF08BD0000000C014005
:1013400010B540210B48FFF7ABFF00F071FC802186
:101350000848FFF7A7FF022000F0E4FD4021054800
:10136000FFF7A0FF022000F0DDFD40210148FFF75C
:1013700097FF10BD000C014070B50546002400F039
:1013800049FC002618E040211048FFF789FF0220A1
:1013900000F0C8FD40210D48FFF784FF6006040EF1
:1013A00080210A48FFF773FF08B1601CC4B2012016
:1013B00000F0B8FD701CC6B2082EE4DB15B9FFF7CB
:1013C000BFFF01E0FFF782FF204670BD000C014027
:1013D00070B5044600F02CFC40211448FFF760FF74
:1013E00000251FE0E00920B180211048FFF75AFFD7
:1013F00003E080210D48FFF753FF6006040E022032
:1014000000F090FD40210948FFF74CFF022000F05A
:1014100089FD40210548FFF743FF022000F082FDCF
:10142000681CC5B2082DDDDB70BD0000000C01405A
:1014300010B500F0FDFB80210A48FFF733FF402183
:101440000848FFF72FFF042000F06CFD80210548BD
:10145000FFF726FF042000F065FD40210148FFF75B
:101460001FFF10BD000C014010B500F0E1FB402152
:101470000A48FFF715FF80210848FFF711FF0420F5
:1014800000F050FD40210548FFF70CFF8021034884
:10149000FFF708FF042000F045FD10BD000C0140DF
:1014A00010B5002400F0B6FB80211148FFF7FAFECA
:1014B000012000F037FD40210D48FFF7F3FE012029
:1014C00000F030FD07E0601CC4B2FA2C03DDFFF72A
:1014D000CBFF012010BD80210548FFF7D8FE002872
:1014E000F1D140210248FFF7DBFE0020F2E70000C7
:1014F000000C014010B500F035F80446042C13D060
:1015000005DC5CB1012C0BD0022C15D10AE0082CB3
:101510000CD00A2C0ED0102C0ED109E0002010BDEA
:101520000120FCE70220FAE70320F8E70420F6E7B1
:101530000520F4E70A20F2E70020F0E708B50121D2
:10154000042000F085FA4FF4F850ADF80000482070
:101550008DF8030069460248FFF70EFE08BD000043
:101560000008014010B500244FF480711348FFF7C4
:101570008EFE08B944F001044FF400710F48FFF7E4
:1015800086FE08B944F002044FF480610B48FFF76F
:101590007EFE08B944F004044FF400610748FFF7E9
:1015A00076FE08B944F008044FF480510348FFF771
:1015B0006EFE08B944F01004204610BD000801403A
:1015C00070B50446002513E04FF400510A48FFF7B8
:1015D00067FE4FF4967000F099FC4FF400510648F6
:1015E000FFF760FE4FF4967000F090FC681CC5B2E7
:1015F000A542E9DB70BD00000010014008B50121E3
:10160000102000F025FA4FF40050ADF80000102033
:101610008DF8030002208DF8020069460448FFF7A8
:10162000ABFD4FF400510248FFF73CFE08BD00003F
:10163000001001402DE9F041104E4720FFF734FE25
:1016400004B2204600F090FF80460D4801684046F5
:1016500001F0F2F807460B4900F088FE05463146D6
:10166000284600F0E1FF074607480168384600F0C9
:101670000FFE05490860BDE8F08100007F6A3C3C30
:101680004800002000008342440000202DE9F04182
:101690000024C827002509E04720FFF705FE06B211
:1016A00034440A2000F032FC681C85B2C82DF3DBFC
:1016B000204600F059FF0646034900F057FE034953
:1016C0000860BDE8F08100000000484348000020A9
:1016D00010B5FFF717FE0A2000F018FC80216B20E0
:1016E00000F0D6FA322000F011FC09216B2000F046
:1016F000CFFA0021192000F0CBFA03211A2000F0C4
:10170000C7FA08211B2000F0C3FA752000F0A3FAE5
:101710000446702C01D0002010BD0120FCE700BF62
:10172000FEE7000000B589B00121052000F090F926
:101730000121022000F07CF93C20ADF820001020AF
:101740008DF8230003208DF8220008A92248FFF716
:1017500013FDC020ADF8200018208DF823000320D1
:101760008DF8220008A91C48FFF706FD40F2E7307B
:10177000ADF818004720ADF814000020ADF81A00AD
:10178000ADF8160005A9154800F09EFB6020ADF8E5
:1017900004000120ADF806000020ADF80A00ADF805
:1017A0000C0001A90D4800F0E9FA01A90B4800F06E
:1017B0002BFB0821094800F01DFB0821074800F019
:1017C00071FB0121054800F0C1FA0121034800F036
:1017D000C9FA09B000BD0000000801400004004043
:1017E00070B505460C46642C00DD642414F1640FCA
:1017F00001DA6FF06304ADBB002C11DD0821354820
:10180000FFF750FD04213348FFF74AFD04EB840045
:101810004FF6FF7202EA40012F4800F050FB57E0FC
:10182000002C12DA08212B48FFF73AFD0421294841
:10183000FFF738FD604200EB80004FF6FF7202EACE
:101840004001254800F03BFB42E008212148FFF71A
:1018500027FD04211F48FFF723FD00211E4800F04B
:101860002EFB35E0FFE7002C11DD10211948FFF7B2
:1018700019FD20211748FFF713FD04EB84004FF6F4
:10188000FF7202EA4001144800F01BFB20E0002C2C
:1018900012DA10210F48FFF703FD20210D48FFF752
:1018A00001FD604200EB80004FF6FF7202EA40014A
:1018B000094800F006FB0BE010210648FFF7F0FC9A
:1018C00020210448FFF7ECFC0021034800F0F9FA5E
:1018D00070BD0000000801400004004010B504463F
:1018E00000212046FFF77CFF10BD704770B5002136
:1018F00000230F22C47804B3154C246804F4E06478
:10190000C4F5E064210AC1F10403CA40447804FA32
:1019100003F184781440214309010E4C0678A15547
:10192000047804F01F050124AC4005786D11AD006A
:1019300005F1E025C5F8004109E0047804F01F0531
:101940000124AC40044D0678761145F8264070BD60
:101950000CED00E000E400E080E100E010B50028BC
:1019600007DA0A07140E054A00F00F031B1FD454B0
:1019700003E00A07130E024A135410BD18ED00E0ED
:1019800000E400E02DE9F04704460E4635462946BE
:10199000A06900F07DFCA0611D49A06900F010FF66
:1019A00001D21B48A0611B49A06900F009FE01D2C9
:1019B0001848A0612846616900F03EFF8146A16891
:1019C00000F032FE0746A169606800F02DFE8146F6
:1019D0002946206800F028FE8246494600F058FC5F
:1019E0008046394600F054FCE06165610849E069D1
:1019F00000F0E6FE01D20648E0610021E06900F057
:101A0000DFFD01D20020E061E069BDE8F087000061
:101A10000000C8420000C8C210B501604260836087
:101A20000024046144618461C46110BD70470000FA
:101A300029B1064AD2690243044BDA6104E0034A41
:101A4000D2698243014BDA61704700000010024006
:101A500029B1064A92690243044B9A6104E0034AA1
:101A600092698243014B9A61704700000010024066
:101A70000F48006840F001000D49086008464068C2
:101A80000C4908400A494860084600680A4908406D
:101A9000074908600846006820F48020086008466E
:101AA000406820F4FE0048604FF41F0088607047D3
:101AB000001002400000FFF8FFFFF6FE10B50146DF
:101AC0000022002300204A11012A02D1094C236878
:101AD00006E0022A02D1074C236A01E0054C636A42
:101AE00001F01F02012494401C400CB1012000E0D1
:101AF000002010BD001002400248406800F00C00B9
:101B0000704700000010024001460020034A506860
:101B100020F0F000084350607047000000100240C1
:101B20001149096821F480310F4A11601146096892
:101B300021F480211160B0F5803F03D0B0F5802FF3
:101B40000ED106E00849096841F48031064A116067
:101B500007E00549096841F4A021034A116000E04B
:101B600000BF00BF70470000001002400146002087
:101B7000034A506820F4E06008435060704700005A
:101B80000010024001460020034A506820F46050D3
:101B900040EAC100506070470010024001490866E9
:101BA000704700000000424202460020044B586883
:101BB00020F47C1042EA01031843014B586070473F
:101BC0000010024001460020034A506820F0030044
:101BD00008435060704700000010024038B50020F4
:101BE00000900024002500BF3120FFF767FF054665
:101BF0000098401C00900098B0F5A06F01D0002D17
:101C0000F2D03120FFF75AFF08B1012400E0002490
:101C1000204638BD08B58020ADF8000048208DF87A
:101C2000030069460148FFF7A7FA08BD000C014010
:101C300008B58020ADF8000010208DF803000320C7
:101C40008DF8020069460248FFF796FA08BD0000C9
:101C5000000C0140704770B50446FFF7E9FBD02047
:101C6000FFF7B6FBFFF71CFC2046FFF7B1FBFFF7C1
:101C700017FCFFF7DDFBD120FFF7AAFBFFF710FCF5
:101C80000020FFF779FB0546FFF7EEFB284670BD05
:101C900070B505460C46FFF7CBFBD020FFF798FB4D
:101CA000FFF7FEFB2846FFF793FBFFF7F9FB204603
:101CB000FFF78EFBFFF7F4FBFFF7D6FB70BD0000CC
:101CC00002480068401C014908607047000000207D
:101CD00010B5FFF7CDFE4FF48030FFF721FFFFF77F
:101CE0007DFF01282AD10220FFF71AFA1020FFF702
:101CF00009FA4FF4E0114FF48030FFF755FF01204F
:101D0000FFF74CFF00BF3920FFF7D8FE0028FAD0BC
:101D10000220FFF757FF00BFFFF7EEFE0828FBD1B8
:101D20000020FFF7F1FE4FF48060FFF71FFF002057
:101D3000FFF728FF03480449086001E000BFFEE701
:101D400010BD000000A24A044000002021B102881A
:101D500042F08002028004E0028840F27F331A40A1
:101D60000280704721B1028842F00102028004E043
:101D7000028840F2FE331A400280704770B500249A
:101D800000220023058C4FF6FE7635400584028C38
:101D90008388048B4FF68C752C400D882C43751E60
:101DA0002A400D892A434D882A43104DA84202D06B
:101DB0000F4DA84213D14FF6F7752A404D892A439B
:101DC0004FF6FB752A408D882A4347F6FF652B4066
:101DD00047F6FF552B408D892B43CD892B438380BC
:101DE0000483CD888586028470BD0000002C0140EC
:101DF000003401400A460021018B4FF6F773194069
:101E0000114301837047000070B5002400220023B5
:101E1000058C4FF6EF7635400584028C8388048B61
:101E200048F6FF452C400D884FF6FF7606EA05255B
:101E30002C434FF6DF752A400D8906EA05152A4323
:101E40004D8806EA05152A43144DA84202D0144DC8
:101E5000A8421DD14FF67F752A404D894FF6FF7677
:101E600006EA05152A434FF6BF752A408D8806EA13
:101E700005152A4347F6FF352B4047F2FF752B40E7
:101E80008D8906EA85052B43CD8906EA85052B4316
:101E900083800483CD880587028470BD002C0140B7
:101EA000003401400A460021018B4FF2FF731940B4
:101EB0004FF6FF7303EA02231943018370478186BB
:101EC0007047018770470000028802F08F0202808D
:101ED000CA884B881A4303881A4302808A888285FD
:101EE0000A880285054A904202D0054A904201D1F3
:101EF0000A7A02860122828270470000002C01408B
:101F00000034014000BFFEE770470000044A11683A
:101F100000BF034A1268521A8242FAD37047000087
:101F20000000002070B5024672B64FF0E0256B69E4
:101F3000A9690A4D2D680A4EB5FBF6F505FB02F4BA
:101F400000BF4FF0E025A869884201D9401A01E09E
:101F50005D1A2844A042F4D362B670BD4000002050
:101F600040420F00FFF7B4FE4820FFF7CDFF2448A2
:101F700000684FF47A71B0FBF1F5B5F1807F01D3C1
:101F8000012011E025F07F40401E4FF0E021486124
:101F90000F214FF0FF30FFF7E1FC00204FF0E02170
:101FA000886107200861002008B100BFFEE700211A
:101FB000481EFFF7D3FCFFF7C1FAFFF7B3FBFFF7AB
:101FC00053F8FFF71BFBFFF783FB044624B90420FB
:101FD000FFF7F6FA00BFFEE70320FFF7F1FAFFF77D
:101FE00055FBFEF72DF90320FEF7DCFD06E0FFF7B9
:101FF00021FB0A20FFF78AFFFEF752FFF7E70000F8
:102000004000002021F00042A2F16052B2F5801F92
:1020100001F0004328BFD2F17F6C0BD95FEA001CAE
:1020200043EAC20242EB507018BF704728BF20F04D
:1020300001007047B2F5801FBCBF184670474FEAD9
:10204000410C1CF5001F02D2084600F0B4BB70B56D
:1020500000F0CAF800000089FFF7F6BF4FF000401B
:10206000A0F58000704710F0004248BF4042B0FA2F
:1020700080F310FA03F10AD0C3F11D0303F5806366
:102080004FEA415002EB035202EBD12170474FF06F
:1020900000007047DFF848C170B51CEA111E1EBF72
:1020A0001CEA13159EEA0C0F95EA0C0F00F06F80E6
:1020B00081EA030423EA4C134EEAD47E21EA4C1150
:1020C00041F4801143F48013AE44A1FB024CA0FB09
:1020D0000365AEF17F7E361955EB0C05A1FB034C71
:1020E0004CF10003A0FB021C16EB0C06654153F1FA
:1020F0000003094218BF46F0010613F4007F0BD11C
:102100004FEA03314FEA0530340341EA155140EA02
:1021100016506FF003020AE04FEAC3214FEAC520D0
:10212000F40241EA555140EA56506FF0020202EBC8
:102130002E4201EB025585EACE710AD05FEA440CCB
:1021400018BF24F0004450F1000041F1000120EAE2
:10215000D47040F2FE7C624500D270BDA84214BF2C
:102160004FF080444FF04044002E08BF0024BEF1E1
:10217000806FA8BFA1F1C041BDE8704080F28280AD
:102180004FF0000001F1C04101F0004170479EEAAC
:102190000C0F0CEA131518BF95EA0C0F06D04FF080
:1021A000000081EA030E0EF0004170BD00F01CF843
:1021B0008900013E00F007B800F009B84FEA430C6F
:1021C0005FEA5C5C08D081EA030100F05BB84FEA8B
:1021D000410C5FEA5C5CF6D14FF0000001497047AA
:1021E0000000FF070000F87F0EF1020E2EF0030E34
:1021F0005EF8046B364205D4012A43EB030515F55E
:10220000001F12D8012841EB010C1CF5001F0CD84F
:102210000ED14FEAD17C15F5001F0CEB4C0C0CF1E4
:10222000020C08BF4CEBD37C04E04FF0080C01E03B
:102230004FEAD37C0CEB4C0526FA05F606F00706B0
:10224000B6F1040C06D20EEB860CBDE870404CF0E3
:10225000010C6047DFE80CF0090B02024FF000416F
:102260004FF00000A1F5002170BD1946104601286D
:1022700051EB010418BFD4F5001484BF002001F015
:10228000004170BD0808A0F500114FEA3101704708
:1022900090EA010F48BF81F0004100F1D482421A58
:1022A0003CBF801A89184FEAD0524FF07F4C1CEA8D
:1022B000410FA2EBD15318BF9CEA026F00F03B80A4
:1022C0004FF0004C4CEA00204CEA012121FA03FCBB
:1022D00010EB0C0C1ED202F1FF325FEA1C2040EB27
:1022E000C25038BF70471CF07F0F4FEA400C18BF38
:1022F000BCF17F4F38BF7047C3F12003994008BF3E
:1023000020F00100BCF17F4F38BF7047A0F1C04002
:1023100000F051BA4FEA3C00000A40EBC25028BF1F
:102320001CF0FF0F4FEA400CE6D018BFBCF17F4F06
:1023300038BF7047EAE79CEA026F05D010EA5C0FED
:1023400008BF00F00040704710B500F0EEF900BF84
:1023500064FBBE3E401058BFC0F14040491058BF1A
:10236000C1F140418142EFF3008070474FF47F0C90
:102370001CEAD0121EBF1CEAD11392EA0C0F93EA9A
:102380000C0F00F0858090EA010F48BF42F4807284
:1023900040F4000C41F400002CF07F4120F07F401D
:1023A00000B58142A2EB03020FF2081CACEB504EC9
:1023B000C0F100009EF800E04FEA4E0E00FB0EFC5C
:1023C00038BF49004FEA2C1C02F5FA020CFB0EF351
:1023D0004FEACE1E4FEA112C4FEAC1210EEB635E8D
:1023E00042EB22420EFB0CFC4FEA1C5300FB031194
:1023F0004FEA112C4FEA01310EFB0CFC4FEADC4C8A
:1024000000FB0C11C14228BF09184CEB03335DF8E7
:1024100004EB10EB410143EBC250B2F57C0F38BF27
:10242000704729D512F0F00F1CBF00F1C04000F03A
:1024300000407047008182838485868788898B8CE1
:102440008D8E8F919293959697999A9C9D9FA0A21D
:10245000A3A5A7A8AAACAEB0B2B3B5B7B9BCBEC06D
:10246000C2C5C7C9CCCED1D4D7D9DCDFE2E6E9EC0E
:10247000F0F3F7FAFE0000004FEA400C0CF1807C0C
:10248000BCF17E4F28BF7047B0F1C04000F093B957
:1024900090EA010F0CEAD11348BF42F48072624502
:1024A00038BF634507D213F47F0F16D080EA0100CE
:1024B00000F00040704710B500F037F9097EFC3E8F
:1024C00000F005B880EA010000F00040704780EAA3
:1024D000010000F0004000F06EB912F47F0F04BF5D
:1024E0000248704780EA010000F065B90000C07F33
:1024F00041000B0ED3F19E0208D950F400034FEABD
:10250000032323FA02F048BF4042704710B500F0A1
:102510000CF900BF49922480002070476FF0004200
:1025200082EA200070470000C10DD1F19E0206DB57
:102530004FEA002343F0004323FA02F070470042C1
:1025400007D54FEA4001B1F1FE4F02D24FF0000033
:10255000704710B500F0E9F84992248000207047D8
:102560006FEA20007047000010F0004148BF404271
:10257000B0FA80F310FA03F2C3F19D030BD051EAD5
:10258000C35101EB1220530638BF704700F1010020
:1025900008BF20F001007047B0FA80F310FA03F290
:1025A000C3F19D030AD0D90501EB1220530638BFB1
:1025B000704700F1010008BF20F0010070470000E3
:1025C00050EA010C00F113801CF5000F58BFBCF558
:1025D000000F01D48842704707D710F5000F58BF8D
:1025E00011F5000F15D488427047894270471CF5D9
:1025F000000F04D5BCF5000FF7D5814270474FF0AE
:10260000807C1CEB400F38BF1CEB410F01D2814294
:10261000704710B500F089F8922449004FF000503F
:102620004FF08051FFF796BE4FF47F0C1CEAD0129A
:102630001EBF1CEAD11392EA0C0F93EA0C0F00F0B4
:10264000478090EA010F48BF42F480724FF0004C7F
:102650004CEA00204CEA012102EB0302A0FB01132B
:10266000A2F50002002918BF43F001035B0028BF58
:102670004FEA330342EB22425FEA132C4CEBC25089
:102680002EBFBCEB436FB2F57C0F70474FEA036C73
:10269000BCF1004F08BF20F00100B2F57C0F38BF3D
:1026A00070470BD582F0FF0212F5803FC8BF70471C
:1026B00000F1C040D8BF00F00040704700F5000CAA
:1026C0005FEA4C0C48BF7047B0F1C04000F073B8EF
:1026D00090EA010F0CEAD11348BF42F480726245C0
:1026E00038BF634504D280EA010000F00040704723
:1026F00010B500F01AF800BF8900013E00F007B8DD
:1027000000F009B85FEA410C5FEA1C6C08D080EA6F
:10271000010000F050B85FEA400C5FEA1C6CF6D193
:102720004FF00040A0F5800070470EF1020E2EF031
:10273000030E5EF8044B244204D44FEA4102B2F186
:102740007F4F11D84FEA4003B3F17F4F0CD80ED121
:102750004FEAD07CB2F17F4F0CEB4C0C0CF1020C29
:1027600008BF4CEBD17C04E04FF0080C01E04FEACD
:10277000D17C0CEB4C0324FA03F404F00704B4F10D
:10278000040C06D20EEB840CBDE810404CF0010C9A
:102790006047DFE80CF0070802024FF00040A0F5A8
:1027A000800010BD0846420018BFD2F1807288BF79
:1027B00000F0004010BDFF2141EAD050C005704735
:1027C00051EA000C00F113801CF5000F58BFBCF556
:1027D000000F01D48142704707D711F5000F58BF91
:1027E00010F5000F15D481427047894270471CF5DF
:1027F000000F04D5BCF5000FF7D5884270474FF0A5
:10280000807C1CEB410F38BF1CEB400F01D288428B
:10281000704780EA010081EA000180EA0100FFF7C9
:10282000F8BE80F0004090EA010F7FF538AD81F0EE
:10283000004100F008B8000090EA010F48BF81F0A5
:1028400000413FF52CAD421A04D882F00042A0EBC3
:10285000020011444FEAD0524FF07F4C1CEA410F66
:10286000A2EBD15318BF9CEA026F4AD04FF0004C44
:102870004CEA00204CEA012121FA03FCB0EB0C0CDD
:102880000FD412F0FE0F36D05FEA4C001DD50012B7
:1028900040EBC25038BF70471CF03F0F18BF704765
:1028A0000BE0A2F101025FEA1C2040EBC25038BFEE
:1028B00070471CF07F0F18BF7047C3F12003994089
:1028C00014BF401E20F00100704780084FEA122319
:1028D00008BF7047B0FA80FCA2EB0C02CCF1280CC8
:1028E00060FA0CF093EA122F04BF00EBC25070475D
:1028F0004FEAC3707047130A5FEADC1008BF7047E5
:10290000F6E79CEA026F04D010EA5C0F08BF0020D3
:10291000704710B5FFF709FF40DFF63E81F0004039
:102920007047000044290008000000204C0000000F
:1029300028010008902900084C0000208C060000A7
:10294000440100080000000000000000000000003A
:102950000000000000000000000000000000000077
:102960000000000000000000000000000000000067
:102970000000000000000000000000000000000057
:102980000000000000A24A04000000000000000057
:04000005080000ED02
:00000001FF
